{
  "_format": "hh-sol-artifact-1",
  "contractName": "UserContract",
  "sourceName": "contracts/User.sol",
  "abi": [
    {
      "inputs": [
        {
          "internalType": "string",
          "name": "_email",
          "type": "string"
        },
        {
          "internalType": "string",
          "name": "_username",
          "type": "string"
        },
        {
          "internalType": "string",
          "name": "_bio",
          "type": "string"
        },
        {
          "internalType": "string",
          "name": "_ava",
          "type": "string"
        },
        {
          "internalType": "string",
          "name": "_facebook",
          "type": "string"
        },
        {
          "internalType": "string",
          "name": "_twitter",
          "type": "string"
        },
        {
          "internalType": "string",
          "name": "_instagram",
          "type": "string"
        },
        {
          "internalType": "string",
          "name": "_youtube",
          "type": "string"
        },
        {
          "internalType": "string",
          "name": "_twitch",
          "type": "string"
        },
        {
          "internalType": "string[4]",
          "name": "_quickAmount",
          "type": "string[4]"
        }
      ],
      "name": "addUser",
      "outputs": [],
      "stateMutability": "nonpayable",
      "type": "function"
    },
    {
      "inputs": [
        {
          "internalType": "string",
          "name": "_email",
          "type": "string"
        },
        {
          "internalType": "string",
          "name": "_username",
          "type": "string"
        },
        {
          "internalType": "string",
          "name": "_bio",
          "type": "string"
        },
        {
          "internalType": "string",
          "name": "_ava",
          "type": "string"
        },
        {
          "internalType": "string",
          "name": "_facebook",
          "type": "string"
        },
        {
          "internalType": "string",
          "name": "_twitter",
          "type": "string"
        },
        {
          "internalType": "string",
          "name": "_instagram",
          "type": "string"
        },
        {
          "internalType": "string",
          "name": "_youtube",
          "type": "string"
        },
        {
          "internalType": "string",
          "name": "_twitch",
          "type": "string"
        },
        {
          "internalType": "string[4]",
          "name": "_quickAmount",
          "type": "string[4]"
        }
      ],
      "name": "editUser",
      "outputs": [],
      "stateMutability": "nonpayable",
      "type": "function"
    },
    {
      "inputs": [],
      "name": "getAllUsers",
      "outputs": [
        {
          "components": [
            {
              "internalType": "string",
              "name": "email",
              "type": "string"
            },
            {
              "internalType": "address",
              "name": "wallet",
              "type": "address"
            },
            {
              "internalType": "string",
              "name": "username",
              "type": "string"
            },
            {
              "internalType": "string",
              "name": "bio",
              "type": "string"
            },
            {
              "internalType": "string",
              "name": "ava",
              "type": "string"
            },
            {
              "components": [
                {
                  "internalType": "string",
                  "name": "facebook",
                  "type": "string"
                },
                {
                  "internalType": "string",
                  "name": "twitter",
                  "type": "string"
                },
                {
                  "internalType": "string",
                  "name": "instagram",
                  "type": "string"
                },
                {
                  "internalType": "string",
                  "name": "youtube",
                  "type": "string"
                },
                {
                  "internalType": "string",
                  "name": "twitch",
                  "type": "string"
                }
              ],
              "internalType": "struct UserContract.SocialMedia",
              "name": "socialMedia",
              "type": "tuple"
            },
            {
              "internalType": "string[4]",
              "name": "quickAmount",
              "type": "string[4]"
            }
          ],
          "internalType": "struct UserContract.UserData[]",
          "name": "",
          "type": "tuple[]"
        }
      ],
      "stateMutability": "view",
      "type": "function"
    },
    {
      "inputs": [
        {
          "internalType": "address",
          "name": "_wallet",
          "type": "address"
        }
      ],
      "name": "getUser",
      "outputs": [
        {
          "internalType": "string",
          "name": "",
          "type": "string"
        },
        {
          "internalType": "string",
          "name": "",
          "type": "string"
        },
        {
          "internalType": "string",
          "name": "",
          "type": "string"
        },
        {
          "internalType": "string",
          "name": "",
          "type": "string"
        },
        {
          "internalType": "string",
          "name": "",
          "type": "string"
        },
        {
          "internalType": "string",
          "name": "",
          "type": "string"
        },
        {
          "internalType": "string",
          "name": "",
          "type": "string"
        },
        {
          "internalType": "string",
          "name": "",
          "type": "string"
        },
        {
          "internalType": "string",
          "name": "",
          "type": "string"
        },
        {
          "internalType": "string[4]",
          "name": "",
          "type": "string[4]"
        }
      ],
      "stateMutability": "view",
      "type": "function"
    },
    {
      "inputs": [
        {
          "internalType": "address",
          "name": "_userAddress",
          "type": "address"
        }
      ],
      "name": "isUser",
      "outputs": [
        {
          "internalType": "bool",
          "name": "",
          "type": "bool"
        }
      ],
      "stateMutability": "view",
      "type": "function"
    },
    {
      "inputs": [
        {
          "internalType": "string",
          "name": "_username",
          "type": "string"
        }
      ],
      "name": "isUsernameTaken",
      "outputs": [
        {
          "internalType": "bool",
          "name": "",
          "type": "bool"
        }
      ],
      "stateMutability": "view",
      "type": "function"
    },
    {
      "inputs": [
        {
          "internalType": "uint256",
          "name": "",
          "type": "uint256"
        }
      ],
      "name": "userAddresses",
      "outputs": [
        {
          "internalType": "address",
          "name": "",
          "type": "address"
        }
      ],
      "stateMutability": "view",
      "type": "function"
    },
    {
      "inputs": [
        {
          "internalType": "string",
          "name": "",
          "type": "string"
        }
      ],
      "name": "usernameToAddress",
      "outputs": [
        {
          "internalType": "address",
          "name": "",
          "type": "address"
        }
      ],
      "stateMutability": "view",
      "type": "function"
    },
    {
      "inputs": [
        {
          "internalType": "address",
          "name": "",
          "type": "address"
        }
      ],
      "name": "users",
      "outputs": [
        {
          "internalType": "string",
          "name": "email",
          "type": "string"
        },
        {
          "internalType": "address",
          "name": "wallet",
          "type": "address"
        },
        {
          "internalType": "string",
          "name": "username",
          "type": "string"
        },
        {
          "internalType": "string",
          "name": "bio",
          "type": "string"
        },
        {
          "internalType": "string",
          "name": "ava",
          "type": "string"
        },
        {
          "components": [
            {
              "internalType": "string",
              "name": "facebook",
              "type": "string"
            },
            {
              "internalType": "string",
              "name": "twitter",
              "type": "string"
            },
            {
              "internalType": "string",
              "name": "instagram",
              "type": "string"
            },
            {
              "internalType": "string",
              "name": "youtube",
              "type": "string"
            },
            {
              "internalType": "string",
              "name": "twitch",
              "type": "string"
            }
          ],
          "internalType": "struct UserContract.SocialMedia",
          "name": "socialMedia",
          "type": "tuple"
        }
      ],
      "stateMutability": "view",
      "type": "function"
    }
  ],
  "bytecode": "0x608060405234801561001057600080fd5b5061374f806100206000396000f3fe608060405234801561001057600080fd5b50600436106100935760003560e01c80636f77926b116100665780636f77926b14610144578063a87430ba1461017d578063e2842d79146101b2578063e8ec1678146101d0578063f825f143146101ec57610093565b8063176c5919146100985780631b9284a7146100c85780634209fff1146100e4578063502c9bd514610114575b600080fd5b6100b260048036038101906100ad91906126c7565b61021c565b6040516100bf919061272b565b60405180910390f35b6100e260048036038101906100dd919061281a565b61030f565b005b6100fe60048036038101906100f99190612a6f565b610855565b60405161010b919061272b565b60405180910390f35b61012e60048036038101906101299190612ad2565b6108ef565b60405161013b9190612b0e565b60405180910390f35b61015e60048036038101906101599190612a6f565b61092e565b6040516101749a99989796959493929190612ca8565b60405180910390f35b61019760048036038101906101929190612a6f565b611291565b6040516101a996959493929190612e1c565b60405180910390f35b6101ba6117f1565b6040516101c79190613142565b60405180910390f35b6101ea60048036038101906101e5919061281a565b611f73565b005b610206600480360381019061020191906126c7565b6123a2565b6040516102139190612b0e565b60405180910390f35b600060028260405161022e91906131a0565b908152602001604051809103902060009054906101000a900473ffffffffffffffffffffffffffffffffffffffff1673ffffffffffffffffffffffffffffffffffffffff163373ffffffffffffffffffffffffffffffffffffffff161461030557600073ffffffffffffffffffffffffffffffffffffffff166002836040516102b791906131a0565b908152602001604051809103902060009054906101000a900473ffffffffffffffffffffffffffffffffffffffff1673ffffffffffffffffffffffffffffffffffffffff161415905061030a565b600090505b919050565b600073ffffffffffffffffffffffffffffffffffffffff166000803373ffffffffffffffffffffffffffffffffffffffff1673ffffffffffffffffffffffffffffffffffffffff16815260200190815260200160002060010160009054906101000a900473ffffffffffffffffffffffffffffffffffffffff1673ffffffffffffffffffffffffffffffffffffffff16036103df576040517f08c379a00000000000000000000000000000000000000000000000000000000081526004016103d690613203565b60405180910390fd5b6000803373ffffffffffffffffffffffffffffffffffffffff1673ffffffffffffffffffffffffffffffffffffffff168152602001908152602001600020600201604051602001610430919061331b565b604051602081830303815290604052805190602001208960405160200161045791906131a0565b6040516020818303038152906040528051906020012014806104e35750600073ffffffffffffffffffffffffffffffffffffffff1660028a60405161049c91906131a0565b908152602001604051809103902060009054906101000a900473ffffffffffffffffffffffffffffffffffffffff1673ffffffffffffffffffffffffffffffffffffffff16145b610522576040517f08c379a00000000000000000000000000000000000000000000000000000000081526004016105199061337e565b60405180910390fd5b896000803373ffffffffffffffffffffffffffffffffffffffff1673ffffffffffffffffffffffffffffffffffffffff16815260200190815260200160002060000190816105709190613535565b50886000803373ffffffffffffffffffffffffffffffffffffffff1673ffffffffffffffffffffffffffffffffffffffff16815260200190815260200160002060020190816105bf9190613535565b50876000803373ffffffffffffffffffffffffffffffffffffffff1673ffffffffffffffffffffffffffffffffffffffff168152602001908152602001600020600301908161060e9190613535565b50866000803373ffffffffffffffffffffffffffffffffffffffff1673ffffffffffffffffffffffffffffffffffffffff168152602001908152602001600020600401908161065d9190613535565b50856000803373ffffffffffffffffffffffffffffffffffffffff1673ffffffffffffffffffffffffffffffffffffffff16815260200190815260200160002060050160000190816106af9190613535565b50846000803373ffffffffffffffffffffffffffffffffffffffff1673ffffffffffffffffffffffffffffffffffffffff16815260200190815260200160002060050160010190816107019190613535565b50836000803373ffffffffffffffffffffffffffffffffffffffff1673ffffffffffffffffffffffffffffffffffffffff16815260200190815260200160002060050160020190816107539190613535565b50826000803373ffffffffffffffffffffffffffffffffffffffff1673ffffffffffffffffffffffffffffffffffffffff16815260200190815260200160002060050160030190816107a59190613535565b50816000803373ffffffffffffffffffffffffffffffffffffffff1673ffffffffffffffffffffffffffffffffffffffff16815260200190815260200160002060050160040190816107f79190613535565b50806000803373ffffffffffffffffffffffffffffffffffffffff1673ffffffffffffffffffffffffffffffffffffffff168152602001908152602001600020600a019060046108489291906123eb565b5050505050505050505050565b60008073ffffffffffffffffffffffffffffffffffffffff166000808473ffffffffffffffffffffffffffffffffffffffff1673ffffffffffffffffffffffffffffffffffffffff16815260200190815260200160002060010160009054906101000a900473ffffffffffffffffffffffffffffffffffffffff1673ffffffffffffffffffffffffffffffffffffffff1614159050919050565b600181815481106108ff57600080fd5b906000526020600020016000915054906101000a900473ffffffffffffffffffffffffffffffffffffffff1681565b6060806060806060806060806060610944612437565b60005b600180549050811015611178578b73ffffffffffffffffffffffffffffffffffffffff166000806001848154811061098257610981613607565b5b9060005260206000200160009054906101000a900473ffffffffffffffffffffffffffffffffffffffff1673ffffffffffffffffffffffffffffffffffffffff1673ffffffffffffffffffffffffffffffffffffffff16815260200190815260200160002060010160009054906101000a900473ffffffffffffffffffffffffffffffffffffffff1673ffffffffffffffffffffffffffffffffffffffff160361116557600080600060018481548110610a3f57610a3e613607565b5b9060005260206000200160009054906101000a900473ffffffffffffffffffffffffffffffffffffffff1673ffffffffffffffffffffffffffffffffffffffff1673ffffffffffffffffffffffffffffffffffffffff1681526020019081526020016000206040518060e0016040529081600082018054610abf90613252565b80601f0160208091040260200160405190810160405280929190818152602001828054610aeb90613252565b8015610b385780601f10610b0d57610100808354040283529160200191610b38565b820191906000526020600020905b815481529060010190602001808311610b1b57829003601f168201915b505050505081526020016001820160009054906101000a900473ffffffffffffffffffffffffffffffffffffffff1673ffffffffffffffffffffffffffffffffffffffff1673ffffffffffffffffffffffffffffffffffffffff168152602001600282018054610ba790613252565b80601f0160208091040260200160405190810160405280929190818152602001828054610bd390613252565b8015610c205780601f10610bf557610100808354040283529160200191610c20565b820191906000526020600020905b815481529060010190602001808311610c0357829003601f168201915b50505050508152602001600382018054610c3990613252565b80601f0160208091040260200160405190810160405280929190818152602001828054610c6590613252565b8015610cb25780601f10610c8757610100808354040283529160200191610cb2565b820191906000526020600020905b815481529060010190602001808311610c9557829003601f168201915b50505050508152602001600482018054610ccb90613252565b80601f0160208091040260200160405190810160405280929190818152602001828054610cf790613252565b8015610d445780601f10610d1957610100808354040283529160200191610d44565b820191906000526020600020905b815481529060010190602001808311610d2757829003601f168201915b50505050508152602001600582016040518060a0016040529081600082018054610d6d90613252565b80601f0160208091040260200160405190810160405280929190818152602001828054610d9990613252565b8015610de65780601f10610dbb57610100808354040283529160200191610de6565b820191906000526020600020905b815481529060010190602001808311610dc957829003601f168201915b50505050508152602001600182018054610dff90613252565b80601f0160208091040260200160405190810160405280929190818152602001828054610e2b90613252565b8015610e785780601f10610e4d57610100808354040283529160200191610e78565b820191906000526020600020905b815481529060010190602001808311610e5b57829003601f168201915b50505050508152602001600282018054610e9190613252565b80601f0160208091040260200160405190810160405280929190818152602001828054610ebd90613252565b8015610f0a5780601f10610edf57610100808354040283529160200191610f0a565b820191906000526020600020905b815481529060010190602001808311610eed57829003601f168201915b50505050508152602001600382018054610f2390613252565b80601f0160208091040260200160405190810160405280929190818152602001828054610f4f90613252565b8015610f9c5780601f10610f7157610100808354040283529160200191610f9c565b820191906000526020600020905b815481529060010190602001808311610f7f57829003601f168201915b50505050508152602001600482018054610fb590613252565b80601f0160208091040260200160405190810160405280929190818152602001828054610fe190613252565b801561102e5780601f106110035761010080835404028352916020019161102e565b820191906000526020600020905b81548152906001019060200180831161101157829003601f168201915b5050505050815250508152602001600a8201600480602002604051908101604052809291906000905b828210156110fa57838201805461106d90613252565b80601f016020809104026020016040519081016040528092919081815260200182805461109990613252565b80156110e65780601f106110bb576101008083540402835291602001916110e6565b820191906000526020600020905b8154815290600101906020018083116110c957829003601f168201915b505050505081526020019060010190611057565b5050505081525050905080600001518160400151826060015183608001518460a00151600001518560a00151602001518660a00151604001518760a00151606001518860a00151608001518960c001519b509b509b509b509b509b509b509b509b509b505050611284565b808061117090613665565b915050610947565b5060405180608001604052806040518060200160405280600081525081526020016040518060200160405280600081525081526020016040518060200160405280600081525081526020016040518060200160405280600081525081525060405180602001604052806000815250906040518060200160405280600081525090604051806020016040528060008152509060405180602001604052806000815250906040518060200160405280600081525090604051806020016040528060008152509060405180602001604052806000815250906040518060200160405280600081525090604051806020016040528060008152509099509950995099509950995099509950995099505b9193959799509193959799565b60006020528060005260406000206000915090508060000180546112b490613252565b80601f01602080910402602001604051908101604052809291908181526020018280546112e090613252565b801561132d5780601f106113025761010080835404028352916020019161132d565b820191906000526020600020905b81548152906001019060200180831161131057829003601f168201915b5050505050908060010160009054906101000a900473ffffffffffffffffffffffffffffffffffffffff169080600201805461136890613252565b80601f016020809104026020016040519081016040528092919081815260200182805461139490613252565b80156113e15780601f106113b6576101008083540402835291602001916113e1565b820191906000526020600020905b8154815290600101906020018083116113c457829003601f168201915b5050505050908060030180546113f690613252565b80601f016020809104026020016040519081016040528092919081815260200182805461142290613252565b801561146f5780601f106114445761010080835404028352916020019161146f565b820191906000526020600020905b81548152906001019060200180831161145257829003601f168201915b50505050509080600401805461148490613252565b80601f01602080910402602001604051908101604052809291908181526020018280546114b090613252565b80156114fd5780601f106114d2576101008083540402835291602001916114fd565b820191906000526020600020905b8154815290600101906020018083116114e057829003601f168201915b505050505090806005016040518060a001604052908160008201805461152290613252565b80601f016020809104026020016040519081016040528092919081815260200182805461154e90613252565b801561159b5780601f106115705761010080835404028352916020019161159b565b820191906000526020600020905b81548152906001019060200180831161157e57829003601f168201915b505050505081526020016001820180546115b490613252565b80601f01602080910402602001604051908101604052809291908181526020018280546115e090613252565b801561162d5780601f106116025761010080835404028352916020019161162d565b820191906000526020600020905b81548152906001019060200180831161161057829003601f168201915b5050505050815260200160028201805461164690613252565b80601f016020809104026020016040519081016040528092919081815260200182805461167290613252565b80156116bf5780601f10611694576101008083540402835291602001916116bf565b820191906000526020600020905b8154815290600101906020018083116116a257829003601f168201915b505050505081526020016003820180546116d890613252565b80601f016020809104026020016040519081016040528092919081815260200182805461170490613252565b80156117515780601f1061172657610100808354040283529160200191611751565b820191906000526020600020905b81548152906001019060200180831161173457829003601f168201915b5050505050815260200160048201805461176a90613252565b80601f016020809104026020016040519081016040528092919081815260200182805461179690613252565b80156117e35780601f106117b8576101008083540402835291602001916117e3565b820191906000526020600020905b8154815290600101906020018083116117c657829003601f168201915b505050505081525050905086565b6060600060018054905067ffffffffffffffff8111156118145761181361259c565b5b60405190808252806020026020018201604052801561184d57816020015b61183a61245e565b8152602001906001900390816118325790505b50905060005b600180549050811015611f6b576000806001838154811061187757611876613607565b5b9060005260206000200160009054906101000a900473ffffffffffffffffffffffffffffffffffffffff1673ffffffffffffffffffffffffffffffffffffffff1673ffffffffffffffffffffffffffffffffffffffff1681526020019081526020016000206040518060e00160405290816000820180546118f790613252565b80601f016020809104026020016040519081016040528092919081815260200182805461192390613252565b80156119705780601f1061194557610100808354040283529160200191611970565b820191906000526020600020905b81548152906001019060200180831161195357829003601f168201915b505050505081526020016001820160009054906101000a900473ffffffffffffffffffffffffffffffffffffffff1673ffffffffffffffffffffffffffffffffffffffff1673ffffffffffffffffffffffffffffffffffffffff1681526020016002820180546119df90613252565b80601f0160208091040260200160405190810160405280929190818152602001828054611a0b90613252565b8015611a585780601f10611a2d57610100808354040283529160200191611a58565b820191906000526020600020905b815481529060010190602001808311611a3b57829003601f168201915b50505050508152602001600382018054611a7190613252565b80601f0160208091040260200160405190810160405280929190818152602001828054611a9d90613252565b8015611aea5780601f10611abf57610100808354040283529160200191611aea565b820191906000526020600020905b815481529060010190602001808311611acd57829003601f168201915b50505050508152602001600482018054611b0390613252565b80601f0160208091040260200160405190810160405280929190818152602001828054611b2f90613252565b8015611b7c5780601f10611b5157610100808354040283529160200191611b7c565b820191906000526020600020905b815481529060010190602001808311611b5f57829003601f168201915b50505050508152602001600582016040518060a0016040529081600082018054611ba590613252565b80601f0160208091040260200160405190810160405280929190818152602001828054611bd190613252565b8015611c1e5780601f10611bf357610100808354040283529160200191611c1e565b820191906000526020600020905b815481529060010190602001808311611c0157829003601f168201915b50505050508152602001600182018054611c3790613252565b80601f0160208091040260200160405190810160405280929190818152602001828054611c6390613252565b8015611cb05780601f10611c8557610100808354040283529160200191611cb0565b820191906000526020600020905b815481529060010190602001808311611c9357829003601f168201915b50505050508152602001600282018054611cc990613252565b80601f0160208091040260200160405190810160405280929190818152602001828054611cf590613252565b8015611d425780601f10611d1757610100808354040283529160200191611d42565b820191906000526020600020905b815481529060010190602001808311611d2557829003601f168201915b50505050508152602001600382018054611d5b90613252565b80601f0160208091040260200160405190810160405280929190818152602001828054611d8790613252565b8015611dd45780601f10611da957610100808354040283529160200191611dd4565b820191906000526020600020905b815481529060010190602001808311611db757829003601f168201915b50505050508152602001600482018054611ded90613252565b80601f0160208091040260200160405190810160405280929190818152602001828054611e1990613252565b8015611e665780601f10611e3b57610100808354040283529160200191611e66565b820191906000526020600020905b815481529060010190602001808311611e4957829003601f168201915b5050505050815250508152602001600a8201600480602002604051908101604052809291906000905b82821015611f32578382018054611ea590613252565b80601f0160208091040260200160405190810160405280929190818152602001828054611ed190613252565b8015611f1e5780601f10611ef357610100808354040283529160200191611f1e565b820191906000526020600020905b815481529060010190602001808311611f0157829003601f168201915b505050505081526020019060010190611e8f565b5050505081525050828281518110611f4d57611f4c613607565b5b60200260200101819052508080611f6390613665565b915050611853565b508091505090565b600073ffffffffffffffffffffffffffffffffffffffff166000803373ffffffffffffffffffffffffffffffffffffffff1673ffffffffffffffffffffffffffffffffffffffff16815260200190815260200160002060010160009054906101000a900473ffffffffffffffffffffffffffffffffffffffff1673ffffffffffffffffffffffffffffffffffffffff1614612043576040517f08c379a000000000000000000000000000000000000000000000000000000000815260040161203a906136f9565b60405180910390fd5b600073ffffffffffffffffffffffffffffffffffffffff1660028a60405161206b91906131a0565b908152602001604051809103902060009054906101000a900473ffffffffffffffffffffffffffffffffffffffff1673ffffffffffffffffffffffffffffffffffffffff16146120f0576040517f08c379a00000000000000000000000000000000000000000000000000000000081526004016120e79061337e565b60405180910390fd5b60006040518060e001604052808c81526020013373ffffffffffffffffffffffffffffffffffffffff1681526020018b81526020018a81526020018981526020016040518060a001604052808a8152602001898152602001888152602001878152602001868152508152602001838152509050806000803373ffffffffffffffffffffffffffffffffffffffff1673ffffffffffffffffffffffffffffffffffffffff16815260200190815260200160002060008201518160000190816121b79190613535565b5060208201518160010160006101000a81548173ffffffffffffffffffffffffffffffffffffffff021916908373ffffffffffffffffffffffffffffffffffffffff16021790555060408201518160020190816122149190613535565b50606082015181600301908161222a9190613535565b5060808201518160040190816122409190613535565b5060a082015181600501600082015181600001908161225f9190613535565b5060208201518160010190816122759190613535565b50604082015181600201908161228b9190613535565b5060608201518160030190816122a19190613535565b5060808201518160040190816122b79190613535565b50505060c082015181600a019060046122d19291906123eb565b509050506001339080600181540180825580915050600190039060005260206000200160009091909190916101000a81548173ffffffffffffffffffffffffffffffffffffffff021916908373ffffffffffffffffffffffffffffffffffffffff1602179055503360028b60405161234991906131a0565b908152602001604051809103902060006101000a81548173ffffffffffffffffffffffffffffffffffffffff021916908373ffffffffffffffffffffffffffffffffffffffff1602179055505050505050505050505050565b6002818051602081018201805184825260208301602085012081835280955050505050506000915054906101000a900473ffffffffffffffffffffffffffffffffffffffff1681565b8260048101928215612426579160200282015b828111156124255782518290816124159190613535565b50916020019190600101906123fe565b5b50905061243391906124bd565b5090565b60405180608001604052806004905b60608152602001906001900390816124465790505090565b6040518060e0016040528060608152602001600073ffffffffffffffffffffffffffffffffffffffff1681526020016060815260200160608152602001606081526020016124aa6124e1565b81526020016124b7612437565b81525090565b5b808211156124dd57600081816124d49190612510565b506001016124be565b5090565b6040518060a0016040528060608152602001606081526020016060815260200160608152602001606081525090565b50805461251c90613252565b6000825580601f1061252e575061254d565b601f01602090049060005260206000209081019061254c9190612550565b5b50565b5b80821115612569576000816000905550600101612551565b5090565b6000604051905090565b600080fd5b600080fd5b600080fd5b600080fd5b6000601f19601f8301169050919050565b7f4e487b7100000000000000000000000000000000000000000000000000000000600052604160045260246000fd5b6125d48261258b565b810181811067ffffffffffffffff821117156125f3576125f261259c565b5b80604052505050565b600061260661256d565b905061261282826125cb565b919050565b600067ffffffffffffffff8211156126325761263161259c565b5b61263b8261258b565b9050602081019050919050565b82818337600083830152505050565b600061266a61266584612617565b6125fc565b90508281526020810184848401111561268657612685612586565b5b612691848285612648565b509392505050565b600082601f8301126126ae576126ad612581565b5b81356126be848260208601612657565b91505092915050565b6000602082840312156126dd576126dc612577565b5b600082013567ffffffffffffffff8111156126fb576126fa61257c565b5b61270784828501612699565b91505092915050565b60008115159050919050565b61272581612710565b82525050565b6000602082019050612740600083018461271c565b92915050565b600067ffffffffffffffff8211156127615761276061259c565b5b602082029050919050565b600080fd5b600061278461277f84612746565b6125fc565b9050806020840283018581111561279e5761279d61276c565b5b835b818110156127e557803567ffffffffffffffff8111156127c3576127c2612581565b5b8086016127d08982612699565b855260208501945050506020810190506127a0565b5050509392505050565b600082601f83011261280457612803612581565b5b6004612811848285612771565b91505092915050565b6000806000806000806000806000806101408b8d03121561283e5761283d612577565b5b60008b013567ffffffffffffffff81111561285c5761285b61257c565b5b6128688d828e01612699565b9a505060208b013567ffffffffffffffff8111156128895761288861257c565b5b6128958d828e01612699565b99505060408b013567ffffffffffffffff8111156128b6576128b561257c565b5b6128c28d828e01612699565b98505060608b013567ffffffffffffffff8111156128e3576128e261257c565b5b6128ef8d828e01612699565b97505060808b013567ffffffffffffffff8111156129105761290f61257c565b5b61291c8d828e01612699565b96505060a08b013567ffffffffffffffff81111561293d5761293c61257c565b5b6129498d828e01612699565b95505060c08b013567ffffffffffffffff81111561296a5761296961257c565b5b6129768d828e01612699565b94505060e08b013567ffffffffffffffff8111156129975761299661257c565b5b6129a38d828e01612699565b9350506101008b013567ffffffffffffffff8111156129c5576129c461257c565b5b6129d18d828e01612699565b9250506101208b013567ffffffffffffffff8111156129f3576129f261257c565b5b6129ff8d828e016127ef565b9150509295989b9194979a5092959850565b600073ffffffffffffffffffffffffffffffffffffffff82169050919050565b6000612a3c82612a11565b9050919050565b612a4c81612a31565b8114612a5757600080fd5b50565b600081359050612a6981612a43565b92915050565b600060208284031215612a8557612a84612577565b5b6000612a9384828501612a5a565b91505092915050565b6000819050919050565b612aaf81612a9c565b8114612aba57600080fd5b50565b600081359050612acc81612aa6565b92915050565b600060208284031215612ae857612ae7612577565b5b6000612af684828501612abd565b91505092915050565b612b0881612a31565b82525050565b6000602082019050612b236000830184612aff565b92915050565b600081519050919050565b600082825260208201905092915050565b60005b83811015612b63578082015181840152602081019050612b48565b60008484015250505050565b6000612b7a82612b29565b612b848185612b34565b9350612b94818560208601612b45565b612b9d8161258b565b840191505092915050565b600060049050919050565b600081905092915050565b6000819050919050565b600082825260208201905092915050565b6000612be482612b29565b612bee8185612bc8565b9350612bfe818560208601612b45565b612c078161258b565b840191505092915050565b6000612c1e8383612bd9565b905092915050565b6000602082019050919050565b6000612c3e82612ba8565b612c488185612bb3565b935083602082028501612c5a85612bbe565b8060005b85811015612c965784840389528151612c778582612c12565b9450612c8283612c26565b925060208a01995050600181019050612c5e565b50829750879550505050505092915050565b6000610140820190508181036000830152612cc3818d612b6f565b90508181036020830152612cd7818c612b6f565b90508181036040830152612ceb818b612b6f565b90508181036060830152612cff818a612b6f565b90508181036080830152612d138189612b6f565b905081810360a0830152612d278188612b6f565b905081810360c0830152612d3b8187612b6f565b905081810360e0830152612d4f8186612b6f565b9050818103610100830152612d648185612b6f565b9050818103610120830152612d798184612c33565b90509b9a5050505050505050505050565b600060a0830160008301518482036000860152612da78282612bd9565b91505060208301518482036020860152612dc18282612bd9565b91505060408301518482036040860152612ddb8282612bd9565b91505060608301518482036060860152612df58282612bd9565b91505060808301518482036080860152612e0f8282612bd9565b9150508091505092915050565b600060c0820190508181036000830152612e368189612b6f565b9050612e456020830188612aff565b8181036040830152612e578187612b6f565b90508181036060830152612e6b8186612b6f565b90508181036080830152612e7f8185612b6f565b905081810360a0830152612e938184612d8a565b9050979650505050505050565b600081519050919050565b600082825260208201905092915050565b6000819050602082019050919050565b612ed581612a31565b82525050565b600060a0830160008301518482036000860152612ef88282612bd9565b91505060208301518482036020860152612f128282612bd9565b91505060408301518482036040860152612f2c8282612bd9565b91505060608301518482036060860152612f468282612bd9565b91505060808301518482036080860152612f608282612bd9565b9150508091505092915050565b600081905092915050565b6000612f8382612ba8565b612f8d8185612f6d565b935083602082028501612f9f85612bbe565b8060005b85811015612fdb5784840389528151612fbc8582612c12565b9450612fc783612c26565b925060208a01995050600181019050612fa3565b50829750879550505050505092915050565b600060e083016000830151848203600086015261300a8282612bd9565b915050602083015161301f6020860182612ecc565b50604083015184820360408601526130378282612bd9565b915050606083015184820360608601526130518282612bd9565b9150506080830151848203608086015261306b8282612bd9565b91505060a083015184820360a08601526130858282612edb565b91505060c083015184820360c086015261309f8282612f78565b9150508091505092915050565b60006130b88383612fed565b905092915050565b6000602082019050919050565b60006130d882612ea0565b6130e28185612eab565b9350836020820285016130f485612ebc565b8060005b85811015613130578484038952815161311185826130ac565b945061311c836130c0565b925060208a019950506001810190506130f8565b50829750879550505050505092915050565b6000602082019050818103600083015261315c81846130cd565b905092915050565b600081905092915050565b600061317a82612b29565b6131848185613164565b9350613194818560208601612b45565b80840191505092915050565b60006131ac828461316f565b915081905092915050565b7f50656e6767756e6120746964616b20646974656d756b616e0000000000000000600082015250565b60006131ed601883612b34565b91506131f8826131b7565b602082019050919050565b6000602082019050818103600083015261321c816131e0565b9050919050565b7f4e487b7100000000000000000000000000000000000000000000000000000000600052602260045260246000fd5b6000600282049050600182168061326a57607f821691505b60208210810361327d5761327c613223565b5b50919050565b60008190508160005260206000209050919050565b600081546132a581613252565b6132af8186613164565b945060018216600081146132ca57600181146132df57613312565b60ff1983168652811515820286019350613312565b6132e885613283565b60005b8381101561330a578154818901526001820191506020810190506132eb565b838801955050505b50505092915050565b60006133278284613298565b915081905092915050565b7f557365726e616d6520737564616820646967756e616b616e0000000000000000600082015250565b6000613368601883612b34565b915061337382613332565b602082019050919050565b600060208201905081810360008301526133978161335b565b9050919050565b60006020601f8301049050919050565b600082821b905092915050565b6000600883026133eb7fffffffffffffffffffffffffffffffffffffffffffffffffffffffffffffffff826133ae565b6133f586836133ae565b95508019841693508086168417925050509392505050565b6000819050919050565b600061343261342d61342884612a9c565b61340d565b612a9c565b9050919050565b6000819050919050565b61344c83613417565b61346061345882613439565b8484546133bb565b825550505050565b600090565b613475613468565b613480818484613443565b505050565b5b818110156134a45761349960008261346d565b600181019050613486565b5050565b601f8211156134e9576134ba81613283565b6134c38461339e565b810160208510156134d2578190505b6134e66134de8561339e565b830182613485565b50505b505050565b600082821c905092915050565b600061350c600019846008026134ee565b1980831691505092915050565b600061352583836134fb565b9150826002028217905092915050565b61353e82612b29565b67ffffffffffffffff8111156135575761355661259c565b5b6135618254613252565b61356c8282856134a8565b600060209050601f83116001811461359f576000841561358d578287015190505b6135978582613519565b8655506135ff565b601f1984166135ad86613283565b60005b828110156135d5578489015182556001820191506020850194506020810190506135b0565b868310156135f257848901516135ee601f8916826134fb565b8355505b6001600288020188555050505b505050505050565b7f4e487b7100000000000000000000000000000000000000000000000000000000600052603260045260246000fd5b7f4e487b7100000000000000000000000000000000000000000000000000000000600052601160045260246000fd5b600061367082612a9c565b91507fffffffffffffffffffffffffffffffffffffffffffffffffffffffffffffffff82036136a2576136a1613636565b5b600182019050919050565b7f416c616d61742073756461682074657264616674617200000000000000000000600082015250565b60006136e3601683612b34565b91506136ee826136ad565b602082019050919050565b60006020820190508181036000830152613712816136d6565b905091905056fea26469706673582212208e47329c0a91c5069ad633026ffe7862814e522829c69922e2c85e3524e0369c64736f6c63430008130033",
  "linkReferences": {},
  "deployedLinkReferences": {}
}