{
  "_format": "hh-sol-artifact-1",
  "contractName": "TransactionContract",
  "sourceName": "contracts/Transaction.sol",
  "abi": [
    {
      "inputs": [],
      "stateMutability": "nonpayable",
      "type": "constructor"
    },
    {
      "anonymous": false,
      "inputs": [
        {
          "indexed": false,
          "internalType": "uint256",
          "name": "transactionId",
          "type": "uint256"
        },
        {
          "indexed": false,
          "internalType": "uint256",
          "name": "transactionDate",
          "type": "uint256"
        },
        {
          "indexed": false,
          "internalType": "uint256",
          "name": "amount",
          "type": "uint256"
        },
        {
          "indexed": false,
          "internalType": "string",
          "name": "userName",
          "type": "string"
        },
        {
          "indexed": false,
          "internalType": "string",
          "name": "message",
          "type": "string"
        },
        {
          "indexed": false,
          "internalType": "address",
          "name": "sender",
          "type": "address"
        },
        {
          "indexed": false,
          "internalType": "address",
          "name": "receiver",
          "type": "address"
        },
        {
          "indexed": false,
          "internalType": "bool",
          "name": "isIncome",
          "type": "bool"
        }
      ],
      "name": "TransactionAdded",
      "type": "event"
    },
    {
      "inputs": [
        {
          "internalType": "address payable",
          "name": "_receiver",
          "type": "address"
        },
        {
          "internalType": "string",
          "name": "_userName",
          "type": "string"
        },
        {
          "internalType": "string",
          "name": "_message",
          "type": "string"
        },
        {
          "internalType": "uint256",
          "name": "_amount",
          "type": "uint256"
        }
      ],
      "name": "addTransactionAndSendEther",
      "outputs": [],
      "stateMutability": "payable",
      "type": "function"
    },
    {
      "inputs": [
        {
          "internalType": "address",
          "name": "_userAddress",
          "type": "address"
        }
      ],
      "name": "getIncomingTransactionHistory",
      "outputs": [
        {
          "components": [
            {
              "internalType": "uint256",
              "name": "transactionId",
              "type": "uint256"
            },
            {
              "internalType": "uint256",
              "name": "transactionDate",
              "type": "uint256"
            },
            {
              "internalType": "uint256",
              "name": "amount",
              "type": "uint256"
            },
            {
              "internalType": "string",
              "name": "userName",
              "type": "string"
            },
            {
              "internalType": "string",
              "name": "message",
              "type": "string"
            },
            {
              "internalType": "address",
              "name": "sender",
              "type": "address"
            },
            {
              "internalType": "address",
              "name": "receiver",
              "type": "address"
            }
          ],
          "internalType": "struct TransactionContract.Transaction[]",
          "name": "",
          "type": "tuple[]"
        }
      ],
      "stateMutability": "view",
      "type": "function"
    },
    {
      "inputs": [
        {
          "internalType": "address",
          "name": "_userAddress",
          "type": "address"
        }
      ],
      "name": "getOutgoingTransactionHistory",
      "outputs": [
        {
          "components": [
            {
              "internalType": "uint256",
              "name": "transactionId",
              "type": "uint256"
            },
            {
              "internalType": "uint256",
              "name": "transactionDate",
              "type": "uint256"
            },
            {
              "internalType": "uint256",
              "name": "amount",
              "type": "uint256"
            },
            {
              "internalType": "string",
              "name": "userName",
              "type": "string"
            },
            {
              "internalType": "string",
              "name": "message",
              "type": "string"
            },
            {
              "internalType": "address",
              "name": "sender",
              "type": "address"
            },
            {
              "internalType": "address",
              "name": "receiver",
              "type": "address"
            }
          ],
          "internalType": "struct TransactionContract.Transaction[]",
          "name": "",
          "type": "tuple[]"
        }
      ],
      "stateMutability": "view",
      "type": "function"
    },
    {
      "inputs": [
        {
          "internalType": "address",
          "name": "",
          "type": "address"
        },
        {
          "internalType": "uint256",
          "name": "",
          "type": "uint256"
        }
      ],
      "name": "incomingTransactions",
      "outputs": [
        {
          "internalType": "uint256",
          "name": "transactionId",
          "type": "uint256"
        },
        {
          "internalType": "uint256",
          "name": "transactionDate",
          "type": "uint256"
        },
        {
          "internalType": "uint256",
          "name": "amount",
          "type": "uint256"
        },
        {
          "internalType": "string",
          "name": "userName",
          "type": "string"
        },
        {
          "internalType": "string",
          "name": "message",
          "type": "string"
        },
        {
          "internalType": "address",
          "name": "sender",
          "type": "address"
        },
        {
          "internalType": "address",
          "name": "receiver",
          "type": "address"
        }
      ],
      "stateMutability": "view",
      "type": "function"
    },
    {
      "inputs": [
        {
          "internalType": "address",
          "name": "",
          "type": "address"
        },
        {
          "internalType": "uint256",
          "name": "",
          "type": "uint256"
        }
      ],
      "name": "outgoingTransactions",
      "outputs": [
        {
          "internalType": "uint256",
          "name": "transactionId",
          "type": "uint256"
        },
        {
          "internalType": "uint256",
          "name": "transactionDate",
          "type": "uint256"
        },
        {
          "internalType": "uint256",
          "name": "amount",
          "type": "uint256"
        },
        {
          "internalType": "string",
          "name": "userName",
          "type": "string"
        },
        {
          "internalType": "string",
          "name": "message",
          "type": "string"
        },
        {
          "internalType": "address",
          "name": "sender",
          "type": "address"
        },
        {
          "internalType": "address",
          "name": "receiver",
          "type": "address"
        }
      ],
      "stateMutability": "view",
      "type": "function"
    },
    {
      "inputs": [],
      "name": "transactionCount",
      "outputs": [
        {
          "internalType": "uint256",
          "name": "",
          "type": "uint256"
        }
      ],
      "stateMutability": "view",
      "type": "function"
    }
  ],
  "bytecode": "0x608060405234801561001057600080fd5b5060008081905550611b3a806100276000396000f3fe6080604052600436106100555760003560e01c8063173a7b741461005a5780632e263e441461009d5780633621e3e3146100e057806344de09ea1461011d5780636a396d2d1461015a578063b77bf60014610176575b600080fd5b34801561006657600080fd5b50610081600480360381019061007c9190610f4f565b6101a1565b604051610094979695949392919061103d565b60405180910390f35b3480156100a957600080fd5b506100c460048036038101906100bf9190610f4f565b610350565b6040516100d7979695949392919061103d565b60405180910390f35b3480156100ec57600080fd5b50610107600480360381019061010291906110ba565b6104ff565b60405161011491906112b4565b60405180910390f35b34801561012957600080fd5b50610144600480360381019061013f91906110ba565b61078b565b60405161015191906112b4565b60405180910390f35b610174600480360381019061016f9190611449565b610a17565b005b34801561018257600080fd5b5061018b610ea1565b60405161019891906114e8565b60405180910390f35b600260205281600052604060002081815481106101bd57600080fd5b9060005260206000209060070201600091509150508060000154908060010154908060020154908060030180546101f390611532565b80601f016020809104026020016040519081016040528092919081815260200182805461021f90611532565b801561026c5780601f106102415761010080835404028352916020019161026c565b820191906000526020600020905b81548152906001019060200180831161024f57829003601f168201915b50505050509080600401805461028190611532565b80601f01602080910402602001604051908101604052809291908181526020018280546102ad90611532565b80156102fa5780601f106102cf576101008083540402835291602001916102fa565b820191906000526020600020905b8154815290600101906020018083116102dd57829003601f168201915b5050505050908060050160009054906101000a900473ffffffffffffffffffffffffffffffffffffffff16908060060160009054906101000a900473ffffffffffffffffffffffffffffffffffffffff16905087565b6001602052816000526040600020818154811061036c57600080fd5b9060005260206000209060070201600091509150508060000154908060010154908060020154908060030180546103a290611532565b80601f01602080910402602001604051908101604052809291908181526020018280546103ce90611532565b801561041b5780601f106103f05761010080835404028352916020019161041b565b820191906000526020600020905b8154815290600101906020018083116103fe57829003601f168201915b50505050509080600401805461043090611532565b80601f016020809104026020016040519081016040528092919081815260200182805461045c90611532565b80156104a95780601f1061047e576101008083540402835291602001916104a9565b820191906000526020600020905b81548152906001019060200180831161048c57829003601f168201915b5050505050908060050160009054906101000a900473ffffffffffffffffffffffffffffffffffffffff16908060060160009054906101000a900473ffffffffffffffffffffffffffffffffffffffff16905087565b6060600260008373ffffffffffffffffffffffffffffffffffffffff1673ffffffffffffffffffffffffffffffffffffffff168152602001908152602001600020805480602002602001604051908101604052809291908181526020016000905b8282101561078057838290600052602060002090600702016040518060e00160405290816000820154815260200160018201548152602001600282015481526020016003820180546105b190611532565b80601f01602080910402602001604051908101604052809291908181526020018280546105dd90611532565b801561062a5780601f106105ff5761010080835404028352916020019161062a565b820191906000526020600020905b81548152906001019060200180831161060d57829003601f168201915b5050505050815260200160048201805461064390611532565b80601f016020809104026020016040519081016040528092919081815260200182805461066f90611532565b80156106bc5780601f10610691576101008083540402835291602001916106bc565b820191906000526020600020905b81548152906001019060200180831161069f57829003601f168201915b505050505081526020016005820160009054906101000a900473ffffffffffffffffffffffffffffffffffffffff1673ffffffffffffffffffffffffffffffffffffffff1673ffffffffffffffffffffffffffffffffffffffff1681526020016006820160009054906101000a900473ffffffffffffffffffffffffffffffffffffffff1673ffffffffffffffffffffffffffffffffffffffff1673ffffffffffffffffffffffffffffffffffffffff168152505081526020019060010190610560565b505050509050919050565b6060600160008373ffffffffffffffffffffffffffffffffffffffff1673ffffffffffffffffffffffffffffffffffffffff168152602001908152602001600020805480602002602001604051908101604052809291908181526020016000905b82821015610a0c57838290600052602060002090600702016040518060e001604052908160008201548152602001600182015481526020016002820154815260200160038201805461083d90611532565b80601f016020809104026020016040519081016040528092919081815260200182805461086990611532565b80156108b65780601f1061088b576101008083540402835291602001916108b6565b820191906000526020600020905b81548152906001019060200180831161089957829003601f168201915b505050505081526020016004820180546108cf90611532565b80601f01602080910402602001604051908101604052809291908181526020018280546108fb90611532565b80156109485780601f1061091d57610100808354040283529160200191610948565b820191906000526020600020905b81548152906001019060200180831161092b57829003601f168201915b505050505081526020016005820160009054906101000a900473ffffffffffffffffffffffffffffffffffffffff1673ffffffffffffffffffffffffffffffffffffffff1673ffffffffffffffffffffffffffffffffffffffff1681526020016006820160009054906101000a900473ffffffffffffffffffffffffffffffffffffffff1673ffffffffffffffffffffffffffffffffffffffff1673ffffffffffffffffffffffffffffffffffffffff1681525050815260200190600101906107ec565b505050509050919050565b60008111610a5a576040517f08c379a0000000000000000000000000000000000000000000000000000000008152600401610a51906115d5565b60405180910390fd5b47341115610a9d576040517f08c379a0000000000000000000000000000000000000000000000000000000008152600401610a9490611641565b60405180910390fd5b600042905060006040518060e0016040528060005481526020018381526020013481526020018681526020018581526020013373ffffffffffffffffffffffffffffffffffffffff1681526020018773ffffffffffffffffffffffffffffffffffffffff168152509050600160008773ffffffffffffffffffffffffffffffffffffffff1673ffffffffffffffffffffffffffffffffffffffff1681526020019081526020016000208190806001815401808255809150506001900390600052602060002090600702016000909190919091506000820151816000015560208201518160010155604082015181600201556060820151816003019081610ba3919061180d565b506080820151816004019081610bb9919061180d565b5060a08201518160050160006101000a81548173ffffffffffffffffffffffffffffffffffffffff021916908373ffffffffffffffffffffffffffffffffffffffff16021790555060c08201518160060160006101000a81548173ffffffffffffffffffffffffffffffffffffffff021916908373ffffffffffffffffffffffffffffffffffffffff1602179055505050600260003373ffffffffffffffffffffffffffffffffffffffff1673ffffffffffffffffffffffffffffffffffffffff1681526020019081526020016000208190806001815401808255809150506001900390600052602060002090600702016000909190919091506000820151816000015560208201518160010155604082015181600201556060820151816003019081610ce6919061180d565b506080820151816004019081610cfc919061180d565b5060a08201518160050160006101000a81548173ffffffffffffffffffffffffffffffffffffffff021916908373ffffffffffffffffffffffffffffffffffffffff16021790555060c08201518160060160006101000a81548173ffffffffffffffffffffffffffffffffffffffff021916908373ffffffffffffffffffffffffffffffffffffffff160217905550505060008673ffffffffffffffffffffffffffffffffffffffff1634604051610db390611910565b60006040518083038185875af1925050503d8060008114610df0576040519150601f19603f3d011682016040523d82523d6000602084013e610df5565b606091505b5050905080610e39576040517f08c379a0000000000000000000000000000000000000000000000000000000008152600401610e3090611971565b60405180910390fd5b7f77be7b3a88fa21fe5b6bdb1175705ddaa1844b6c6a3758eec7795d25d9e5969160005484868989338d6000604051610e79989796959493929190611a01565b60405180910390a1600080815480929190610e9390611abc565b919050555050505050505050565b60005481565b6000604051905090565b600080fd5b600080fd5b600073ffffffffffffffffffffffffffffffffffffffff82169050919050565b6000610ee682610ebb565b9050919050565b610ef681610edb565b8114610f0157600080fd5b50565b600081359050610f1381610eed565b92915050565b6000819050919050565b610f2c81610f19565b8114610f3757600080fd5b50565b600081359050610f4981610f23565b92915050565b60008060408385031215610f6657610f65610eb1565b5b6000610f7485828601610f04565b9250506020610f8585828601610f3a565b9150509250929050565b610f9881610f19565b82525050565b600081519050919050565b600082825260208201905092915050565b60005b83811015610fd8578082015181840152602081019050610fbd565b60008484015250505050565b6000601f19601f8301169050919050565b600061100082610f9e565b61100a8185610fa9565b935061101a818560208601610fba565b61102381610fe4565b840191505092915050565b61103781610edb565b82525050565b600060e082019050611052600083018a610f8f565b61105f6020830189610f8f565b61106c6040830188610f8f565b818103606083015261107e8187610ff5565b905081810360808301526110928186610ff5565b90506110a160a083018561102e565b6110ae60c083018461102e565b98975050505050505050565b6000602082840312156110d0576110cf610eb1565b5b60006110de84828501610f04565b91505092915050565b600081519050919050565b600082825260208201905092915050565b6000819050602082019050919050565b61111c81610f19565b82525050565b600082825260208201905092915050565b600061113e82610f9e565b6111488185611122565b9350611158818560208601610fba565b61116181610fe4565b840191505092915050565b61117581610edb565b82525050565b600060e0830160008301516111936000860182611113565b5060208301516111a66020860182611113565b5060408301516111b96040860182611113565b50606083015184820360608601526111d18282611133565b915050608083015184820360808601526111eb8282611133565b91505060a083015161120060a086018261116c565b5060c083015161121360c086018261116c565b508091505092915050565b600061122a838361117b565b905092915050565b6000602082019050919050565b600061124a826110e7565b61125481856110f2565b93508360208202850161126685611103565b8060005b858110156112a25784840389528151611283858261121e565b945061128e83611232565b925060208a0199505060018101905061126a565b50829750879550505050505092915050565b600060208201905081810360008301526112ce818461123f565b905092915050565b60006112e182610ebb565b9050919050565b6112f1816112d6565b81146112fc57600080fd5b50565b60008135905061130e816112e8565b92915050565b600080fd5b600080fd5b7f4e487b7100000000000000000000000000000000000000000000000000000000600052604160045260246000fd5b61135682610fe4565b810181811067ffffffffffffffff821117156113755761137461131e565b5b80604052505050565b6000611388610ea7565b9050611394828261134d565b919050565b600067ffffffffffffffff8211156113b4576113b361131e565b5b6113bd82610fe4565b9050602081019050919050565b82818337600083830152505050565b60006113ec6113e784611399565b61137e565b90508281526020810184848401111561140857611407611319565b5b6114138482856113ca565b509392505050565b600082601f8301126114305761142f611314565b5b81356114408482602086016113d9565b91505092915050565b6000806000806080858703121561146357611462610eb1565b5b6000611471878288016112ff565b945050602085013567ffffffffffffffff81111561149257611491610eb6565b5b61149e8782880161141b565b935050604085013567ffffffffffffffff8111156114bf576114be610eb6565b5b6114cb8782880161141b565b92505060606114dc87828801610f3a565b91505092959194509250565b60006020820190506114fd6000830184610f8f565b92915050565b7f4e487b7100000000000000000000000000000000000000000000000000000000600052602260045260246000fd5b6000600282049050600182168061154a57607f821691505b60208210810361155d5761155c611503565b5b50919050565b7f457468657220616d6f756e74206d75737420626520677265617465722074686160008201527f6e20300000000000000000000000000000000000000000000000000000000000602082015250565b60006115bf602383610fa9565b91506115ca82611563565b604082019050919050565b600060208201905081810360008301526115ee816115b2565b9050919050565b7f496e73756666696369656e742045746865722073656e74000000000000000000600082015250565b600061162b601783610fa9565b9150611636826115f5565b602082019050919050565b6000602082019050818103600083015261165a8161161e565b9050919050565b60008190508160005260206000209050919050565b60006020601f8301049050919050565b600082821b905092915050565b6000600883026116c37fffffffffffffffffffffffffffffffffffffffffffffffffffffffffffffffff82611686565b6116cd8683611686565b95508019841693508086168417925050509392505050565b6000819050919050565b600061170a61170561170084610f19565b6116e5565b610f19565b9050919050565b6000819050919050565b611724836116ef565b61173861173082611711565b848454611693565b825550505050565b600090565b61174d611740565b61175881848461171b565b505050565b5b8181101561177c57611771600082611745565b60018101905061175e565b5050565b601f8211156117c15761179281611661565b61179b84611676565b810160208510156117aa578190505b6117be6117b685611676565b83018261175d565b50505b505050565b600082821c905092915050565b60006117e4600019846008026117c6565b1980831691505092915050565b60006117fd83836117d3565b9150826002028217905092915050565b61181682610f9e565b67ffffffffffffffff81111561182f5761182e61131e565b5b6118398254611532565b611844828285611780565b600060209050601f8311600181146118775760008415611865578287015190505b61186f85826117f1565b8655506118d7565b601f19841661188586611661565b60005b828110156118ad57848901518255600182019150602085019450602081019050611888565b868310156118ca57848901516118c6601f8916826117d3565b8355505b6001600288020188555050505b505050505050565b600081905092915050565b50565b60006118fa6000836118df565b9150611905826118ea565b600082019050919050565b600061191b826118ed565b9150819050919050565b7f4661696c656420746f2073656e64204574686572000000000000000000000000600082015250565b600061195b601483610fa9565b915061196682611925565b602082019050919050565b6000602082019050818103600083015261198a8161194e565b9050919050565b60006119ac6119a76119a284610ebb565b6116e5565b610ebb565b9050919050565b60006119be82611991565b9050919050565b60006119d0826119b3565b9050919050565b6119e0816119c5565b82525050565b60008115159050919050565b6119fb816119e6565b82525050565b600061010082019050611a17600083018b610f8f565b611a24602083018a610f8f565b611a316040830189610f8f565b8181036060830152611a438188610ff5565b90508181036080830152611a578187610ff5565b9050611a6660a083018661102e565b611a7360c08301856119d7565b611a8060e08301846119f2565b9998505050505050505050565b7f4e487b7100000000000000000000000000000000000000000000000000000000600052601160045260246000fd5b6000611ac782610f19565b91507fffffffffffffffffffffffffffffffffffffffffffffffffffffffffffffffff8203611af957611af8611a8d565b5b60018201905091905056fea2646970667358221220117888714c5c4e4ee562444a3a22edd1adf6896db242f3a0ec7112dcf92b701f64736f6c63430008130033",
  "linkReferences": {},
  "deployedLinkReferences": {}
}